:020000040000FA
:02000000FA28DC
:080008008E00030E8D00803014
:100010008107B220C0208030180203190617980A01
:100020009808031D27280613990A3C301902031D5E
:10003000272899018613000000000000000000003E
:10004000000000000000000000008617CE202F20D6
:100050000B112A280D0E83008E0E0E0E09008C0344
:10006000031D342804308C0001300C02031D3D2890
:100070000E3085000F089300582802300C02031D33
:1000800046280D30850010089300582803300C02D4
:10009000031D4F280B3085001108930058280430A9
:1000A0000C02031D582807308500120893005828B9
:1000B00000301302031D61280611861106128612F4
:1000C000080001301302031D6A2806158611061266
:1000D0008612080002301302031D732806118615CC
:1000E00006128612080003301302031D7C28061531
:1000F000861506128612080004301302031D852897
:100100000611861106168612080005301302031D1B
:100110008E28061586110616861208000630130270
:10012000031D97280611861506168612080007304B
:100130001302031DA0280615861506168612080050
:1001400008301302031DA92806118611061286160F
:10015000080009301302031D080006158611061257
:10016000861608001518BA2806180800151432302B
:10017000960008009603031D08001510ED200800E6
:100180001418C82886180800141432309700080084
:100190009703031D08001410DA200800920A0A30A1
:1001A0001202031D08009201910A06301102031D7C
:1001B0000800910103301002031DE52802300F02F0
:1001C000031DE52890018F010800900A0A301002F3
:1001D000031D080090018F0A0800920A0A301202DB
:1001E000031D08009201910A06301102031D080048
:1001F0009101080083128501860183162830810051
:1002000010308500033086008312A0308B008501FA
:10021000861381018F019001910192019301980150
:10022000990104308C0095019401323096009700BA
:0602300086171A291A29A5
:02400E00F23F7F
:00000001FF
